{
  "contractName": "BlockPoll",
  "abi": [
    {
      "constant": true,
      "inputs": [
        {
          "internalType": "uint256",
          "name": "",
          "type": "uint256"
        }
      ],
      "name": "activePolls",
      "outputs": [
        {
          "internalType": "uint256",
          "name": "choicesCount",
          "type": "uint256"
        },
        {
          "internalType": "string",
          "name": "PollName",
          "type": "string"
        }
      ],
      "payable": false,
      "stateMutability": "view",
      "type": "function"
    },
    {
      "constant": false,
      "inputs": [
        {
          "internalType": "string[]",
          "name": "arr",
          "type": "string[]"
        },
        {
          "internalType": "string",
          "name": "PollName",
          "type": "string"
        }
      ],
      "name": "addNewPoll",
      "outputs": [],
      "payable": false,
      "stateMutability": "nonpayable",
      "type": "function"
    },
    {
      "constant": false,
      "inputs": [
        {
          "internalType": "uint256",
          "name": "pollid",
          "type": "uint256"
        },
        {
          "internalType": "uint256",
          "name": "choiceid",
          "type": "uint256"
        }
      ],
      "name": "getVotes",
      "outputs": [
        {
          "internalType": "uint256",
          "name": "",
          "type": "uint256"
        }
      ],
      "payable": false,
      "stateMutability": "nonpayable",
      "type": "function"
    },
    {
      "constant": false,
      "inputs": [
        {
          "internalType": "uint256",
          "name": "pollId",
          "type": "uint256"
        },
        {
          "internalType": "uint256",
          "name": "choiceId",
          "type": "uint256"
        }
      ],
      "name": "vote",
      "outputs": [],
      "payable": false,
      "stateMutability": "nonpayable",
      "type": "function"
    },
    {
      "constant": false,
      "inputs": [],
      "name": "topPoll",
      "outputs": [
        {
          "internalType": "uint256",
          "name": "",
          "type": "uint256"
        }
      ],
      "payable": false,
      "stateMutability": "nonpayable",
      "type": "function"
    },
    {
      "constant": false,
      "inputs": [
        {
          "internalType": "uint256",
          "name": "pollid",
          "type": "uint256"
        }
      ],
      "name": "getPoll",
      "outputs": [
        {
          "internalType": "string",
          "name": "",
          "type": "string"
        }
      ],
      "payable": false,
      "stateMutability": "nonpayable",
      "type": "function"
    }
  ],
  "bytecode": "0x608060405234801561001057600080fd5b50610f63806100206000396000f3fe608060405234801561001057600080fd5b50600436106100625760003560e01c80631a8cbcaa146100675780635428faf1146100975780635a30cab3146100b55780637d66c097146100d157806391f3663314610102578063b384abef14610132575b600080fd5b610081600480360361007c9190810190610bc5565b61014e565b60405161008e9190610d2b565b60405180910390f35b61009f61031c565b6040516100ac9190610d8d565b60405180910390f35b6100cf60048036036100ca9190810190610b59565b6104cf565b005b6100eb60048036036100e69190810190610bc5565b610563565b6040516100f9929190610da8565b60405180910390f35b61011c60048036036101179190810190610bee565b61062c565b6040516101299190610d8d565b60405180910390f35b61014c60048036036101479190810190610bee565b61074e565b005b606060016102116000848154811061016257fe5b90600052602060002090600502016002018054600181600116156101000203166002900480601f0160208091040260200160405190810160405280929190818152602001828054600181600116156101000203166002900480156102075780601f106101dc57610100808354040283529160200191610207565b820191906000526020600020905b8154815290600101906020018083116101ea57829003601f168201915b5050505050610884565b50602060ff161015610258576040517f08c379a000000000000000000000000000000000000000000000000000000000815260040161024f90610d4d565b60405180910390fd5b60606000838154811061026757fe5b90600052602060002090600502016002018054600181600116156101000203166002900480601f01602080910402602001604051908101604052809291908181526020018280546001816001161561010002031660029004801561030c5780601f106102e15761010080835404028352916020019161030c565b820191906000526020600020905b8154815290600101906020018083116102ef57829003601f168201915b5050505050905080915050919050565b60008060008054905011610365576040517f08c379a000000000000000000000000000000000000000000000000000000000815260040161035c90610d6d565b60405180910390fd5b6000809050600080905060008090505b6000805490508110156104c6576000809050600080838154811061039557fe5b9060005260206000209060050201905060008090505b81600001805490508110156104aa5781600301600061047a8460000184815481106103d257fe5b906000526020600020018054600181600116156101000203166002900480601f0160208091040260200160405190810160405280929190818152602001828054600181600116156101000203166002900480156104705780601f1061044557610100808354040283529160200191610470565b820191906000526020600020905b81548152906001019060200180831161045357829003601f168201915b5050505050610884565b815260200190815260200160002060009054906101000a900460ff1660ff168301925080806001019150506103ab565b50838211156104b7578294505b50508080600101915050610375565b50819250505090565b6000604051806060016040528084815260200184518152602001838152509080600181540180825580915050906001820390600052602060002090600502016000909192909190915060008201518160000190805190602001906105349291906108af565b5060208201518160010155604082015181600201908051906020019061055b92919061090f565b505050505050565b6000818154811061057057fe5b9060005260206000209060050201600091509050806001015490806002018054600181600116156101000203166002900480601f0160208091040260200160405190810160405280929190818152602001828054600181600116156101000203166002900480156106225780601f106105f757610100808354040283529160200191610622565b820191906000526020600020905b81548152906001019060200180831161060557829003601f168201915b5050505050905082565b6000806000848154811061063c57fe5b906000526020600020906005020160030160006107236000878154811061065f57fe5b9060005260206000209060050201600001868154811061067b57fe5b906000526020600020018054600181600116156101000203166002900480601f0160208091040260200160405190810160405280929190818152602001828054600181600116156101000203166002900480156107195780601f106106ee57610100808354040283529160200191610719565b820191906000526020600020905b8154815290600101906020018083116106fc57829003601f168201915b5050505050610884565b815260200190815260200160002060009054906101000a900460ff1660ff1690508091505092915050565b6000828154811061075b57fe5b906000526020600020906005020160030160006108426000858154811061077e57fe5b9060005260206000209060050201600001848154811061079a57fe5b906000526020600020018054600181600116156101000203166002900480601f0160208091040260200160405190810160405280929190818152602001828054600181600116156101000203166002900480156108385780601f1061080d57610100808354040283529160200191610838565b820191906000526020600020905b81548152906001019060200180831161081b57829003601f168201915b5050505050610884565b8152602001908152602001600020600081819054906101000a900460ff168092919060010191906101000a81548160ff021916908360ff160217905550505050565b600060608290506000815114156108a1576000801b9150506108aa565b60208301519150505b919050565b8280548282559060005260206000209081019282156108fe579160200282015b828111156108fd5782518290805190602001906108ed92919061090f565b50916020019190600101906108cf565b5b50905061090b919061098f565b5090565b828054600181600116156101000203166002900490600052602060002090601f016020900481019282601f1061095057805160ff191683800117855561097e565b8280016001018555821561097e579182015b8281111561097d578251825591602001919060010190610962565b5b50905061098b91906109bb565b5090565b6109b891905b808211156109b457600081816109ab91906109e0565b50600101610995565b5090565b90565b6109dd91905b808211156109d95760008160009055506001016109c1565b5090565b90565b50805460018160011615610100020316600290046000825580601f10610a065750610a25565b601f016020900490600052602060002090810190610a2491906109bb565b5b50565b600082601f830112610a3957600080fd5b8135610a4c610a4782610e05565b610dd8565b9150818183526020840193506020810190508360005b83811015610a925781358601610a788882610a9c565b845260208401935060208301925050600181019050610a62565b5050505092915050565b600082601f830112610aad57600080fd5b8135610ac0610abb82610e2d565b610dd8565b91508082526020830160208301858383011115610adc57600080fd5b610ae7838284610eb6565b50505092915050565b600082601f830112610b0157600080fd5b8135610b14610b0f82610e59565b610dd8565b91508082526020830160208301858383011115610b3057600080fd5b610b3b838284610eb6565b50505092915050565b600081359050610b5381610f09565b92915050565b60008060408385031215610b6c57600080fd5b600083013567ffffffffffffffff811115610b8657600080fd5b610b9285828601610a28565b925050602083013567ffffffffffffffff811115610baf57600080fd5b610bbb85828601610af0565b9150509250929050565b600060208284031215610bd757600080fd5b6000610be584828501610b44565b91505092915050565b60008060408385031215610c0157600080fd5b6000610c0f85828601610b44565b9250506020610c2085828601610b44565b9150509250929050565b6000610c3582610e90565b610c3f8185610e9b565b9350610c4f818560208601610ec5565b610c5881610ef8565b840191505092915050565b6000610c6e82610e85565b610c788185610e9b565b9350610c88818560208601610ec5565b610c9181610ef8565b840191505092915050565b6000610ca9601383610e9b565b91507f506f6c6c20646f6573206e6f74206578697374000000000000000000000000006000830152602082019050919050565b6000610ce9601083610e9b565b91507f4e6f2061637469766520506f6c6c7321000000000000000000000000000000006000830152602082019050919050565b610d2581610eac565b82525050565b60006020820190508181036000830152610d458184610c2a565b905092915050565b60006020820190508181036000830152610d6681610c9c565b9050919050565b60006020820190508181036000830152610d8681610cdc565b9050919050565b6000602082019050610da26000830184610d1c565b92915050565b6000604082019050610dbd6000830185610d1c565b8181036020830152610dcf8184610c63565b90509392505050565b6000604051905081810181811067ffffffffffffffff82111715610dfb57600080fd5b8060405250919050565b600067ffffffffffffffff821115610e1c57600080fd5b602082029050602081019050919050565b600067ffffffffffffffff821115610e4457600080fd5b601f19601f8301169050602081019050919050565b600067ffffffffffffffff821115610e7057600080fd5b601f19601f8301169050602081019050919050565b600081519050919050565b600081519050919050565b600082825260208201905092915050565b6000819050919050565b82818337600083830152505050565b60005b83811015610ee3578082015181840152602081019050610ec8565b83811115610ef2576000848401525b50505050565b6000601f19601f8301169050919050565b610f1281610eac565b8114610f1d57600080fd5b5056fea365627a7a723158205547a5c9081988cc686cde2281ecd932b0f710ce4d843a6f8bf3974bd267f99d6c6578706572696d656e74616cf564736f6c63430005100040",
  "source": "pragma solidity >=0.4.22 <0.7.0;\r\npragma experimental ABIEncoderV2;\r\n\r\ncontract BlockPoll{\r\n    \r\n    struct Poll{\r\n        string[] choices;\r\n        uint choicesCount;\r\n        string PollName;\r\n        mapping(bytes32 => uint8) votes;\r\n        mapping(address => bool) voters;\r\n       \r\n    }\r\n    \r\n    Poll[] public activePolls;\r\n    \r\n      // Create new Poll and add it to activePolls \r\n    function addNewPoll(string[] memory arr, string memory PollName) public {\r\n        activePolls.push(Poll(arr, arr.length, PollName));\r\n    }\r\n    \r\n    //vote for a choice in a poll\r\n   function getVotes(uint pollid, uint choiceid) public returns(uint)\r\n    {\r\n        uint votes = activePolls[pollid].votes[stringToBytes32(activePolls[pollid].choices[choiceid])];\r\n        return votes;\r\n    }\r\n    \r\n   function vote(uint pollId, uint choiceId)public\r\n    {\r\n       activePolls[pollId].votes[stringToBytes32(activePolls[pollId].choices[choiceId])]++;\r\n    }\r\n    \r\n    //returns the index of the poll with the highest votes in active polls\r\n    function topPoll() public returns(uint256){\r\n        require(activePolls.length > 0, \"No active Polls!\");\r\n        uint256 top = 0;\r\n        uint maxVotes = 0;\r\n        \r\n        for(uint i = 0; i < activePolls.length; i++)// loop through polls\r\n        {\r\n            uint votes = 0;\r\n            \r\n            Poll storage p = activePolls[i];\r\n            for(uint j = 0; j < p.choices.length; j++)//loop through current polls choices\r\n            {\r\n                votes += p.votes[stringToBytes32(p.choices[j])];// add votes to total\r\n            }\r\n            if(votes > maxVotes)// compare to top, if great assign new top\r\n            {\r\n                top = i;\r\n            }\r\n        }\r\n        return top;\r\n    }\r\n    function getPoll(uint pollid)public returns (string memory)\r\n    {\r\n        require(stringToBytes32(activePolls[pollid].PollName).length >=1,\"Poll does not exist\");\r\n        \r\n        string memory ret=  activePolls[pollid].PollName;\r\n        return ret;\r\n    }\r\n    function stringToBytes32(string memory source) private pure returns (bytes32 result) {\r\n        bytes memory tempEmptyStringTest = bytes(source);\r\n        if (tempEmptyStringTest.length == 0) {\r\n            return 0x0;\r\n        }\r\n    \r\n        assembly {\r\n            result := mload(add(source, 32))\r\n        }\r\n    }\r\n}",
  "sourcePath": "C:/Users/bakerz/Desktop/Projects/BlockPoll/BlockPoll/contracts/BlockPoll.sol",
  "compiler": {
    "name": "solc",
    "version": "0.5.16+commit.9c3226ce.Emscripten.clang"
  },
  "schemaVersion": "3.3.1",
  "updatedAt": "2020-12-15T20:28:36.739Z",
  "networkType": "ethereum",
  "devdoc": {
    "methods": {}
  },
  "userdoc": {
    "methods": {}
  }
}