{
  "contractName": "BlockPoll",
  "abi": [
    {
      "constant": false,
      "inputs": [
        {
          "internalType": "uint256",
          "name": "pollid",
          "type": "uint256"
        }
      ],
      "name": "getVotes",
      "outputs": [
        {
          "internalType": "uint256[]",
          "name": "",
          "type": "uint256[]"
        }
      ],
      "payable": false,
      "stateMutability": "nonpayable",
      "type": "function"
    },
    {
      "constant": false,
      "inputs": [
        {
          "internalType": "bytes32[]",
          "name": "arr",
          "type": "bytes32[]"
        },
        {
          "internalType": "string",
          "name": "PollName",
          "type": "string"
        }
      ],
      "name": "addNewPoll",
      "outputs": [],
      "payable": false,
      "stateMutability": "nonpayable",
      "type": "function"
    },
    {
      "constant": false,
      "inputs": [
        {
          "internalType": "uint256",
          "name": "pollId",
          "type": "uint256"
        },
        {
          "internalType": "uint256",
          "name": "choiceId",
          "type": "uint256"
        }
      ],
      "name": "vote",
      "outputs": [],
      "payable": false,
      "stateMutability": "nonpayable",
      "type": "function"
    },
    {
      "constant": false,
      "inputs": [],
      "name": "topPoll",
      "outputs": [
        {
          "internalType": "uint256",
          "name": "",
          "type": "uint256"
        }
      ],
      "payable": false,
      "stateMutability": "nonpayable",
      "type": "function"
    }
  ],
  "bytecode": "0x608060405234801561001057600080fd5b5061073a806100206000396000f3fe608060405234801561001057600080fd5b506004361061004c5760003560e01c80633f5890b4146100515780635428faf1146101a0578063b384abef146101be578063ff981099146101f6575b600080fd5b61019e6004803603604081101561006757600080fd5b810190808035906020019064010000000081111561008457600080fd5b82018360208201111561009657600080fd5b803590602001918460208302840111640100000000831117156100b857600080fd5b919080806020026020016040519081016040528093929190818152602001838360200280828437600081840152601f19601f8201169050808301925050505050505091929192908035906020019064010000000081111561011857600080fd5b82018360208201111561012a57600080fd5b8035906020019184600183028401116401000000008311171561014c57600080fd5b91908080601f016020809104026020016040519081016040528093929190818152602001838380828437600081840152601f19601f820116905080830192505050505050509192919290505050610279565b005b6101a861030d565b6040518082815260200191505060405180910390f35b6101f4600480360360408110156101d457600080fd5b810190808035906020019092919080359060200190929190505050610450565b005b6102226004803603602081101561020c57600080fd5b81019080803590602001909291905050506104e5565b6040518080602001828103825283818151815260200191508051906020019060200280838360005b8381101561026557808201518184015260208101905061024a565b505050509050019250505060405180910390f35b6000604051806060016040528084815260200184518152602001838152509080600181540180825580915050906001820390600052602060002090600502016000909192909190915060008201518160000190805190602001906102de9291906105ee565b5060208201518160010155604082015181600201908051906020019061030592919061063b565b505050505050565b60008060008054905011610389576040517f08c379a00000000000000000000000000000000000000000000000000000000081526004018080602001828103825260108152602001807f4e6f2061637469766520506f6c6c73210000000000000000000000000000000081525060200191505060405180910390fd5b6000806000905060008090505b60008054905081101561044757600080905060008083815481106103b657fe5b9060005260206000209060050201905060008090505b816000018054905081101561042b578160030160008360000183815481106103f057fe5b9060005260206000200154815260200190815260200160002060009054906101000a900460ff1660ff168301925080806001019150506103cc565b5083821115610438578294505b50508080600101915050610396565b50819250505090565b6000828154811061045d57fe5b9060005260206000209060050201600301600080848154811061047c57fe5b9060005260206000209060050201600001838154811061049857fe5b90600052602060002001548152602001908152602001600020600081819054906101000a900460ff168092919060010191906101000a81548160ff021916908360ff160217905550505050565b606060008083815481106104f557fe5b906000526020600020906005020160010154905060608160405190808252806020026020018201604052801561053a5781602001602082028038833980820191505090505b50905060008090505b81518110156105e3576000858154811061055957fe5b9060005260206000209060050201600301600080878154811061057857fe5b9060005260206000209060050201600001838154811061059457fe5b9060005260206000200154815260200190815260200160002060009054906101000a900460ff1660ff168282815181106105ca57fe5b6020026020010181815250508080600101915050610543565b508092505050919050565b82805482825590600052602060002090810192821561062a579160200282015b8281111561062957825182559160200191906001019061060e565b5b50905061063791906106bb565b5090565b828054600181600116156101000203166002900490600052602060002090601f016020900481019282601f1061067c57805160ff19168380011785556106aa565b828001600101855582156106aa579182015b828111156106a957825182559160200191906001019061068e565b5b5090506106b791906106e0565b5090565b6106dd91905b808211156106d95760008160009055506001016106c1565b5090565b90565b61070291905b808211156106fe5760008160009055506001016106e6565b5090565b9056fea265627a7a7231582037d04a7a5e2eab3aa7ff6450ee5c96b07a776b1bb60c357f306ebee63d2e654264736f6c63430005100032",
  "source": "pragma solidity >=0.4.22 <0.7.0;\r\n\r\ncontract BlockPoll{\r\n    \r\n    struct Poll{\r\n        bytes32[] choices;\r\n        uint choicesCount;\r\n        string PollName;\r\n        mapping(bytes32 => uint8) votes;\r\n        mapping(address => bool) voters;\r\n       \r\n    }\r\n    \r\n    Poll[] private activePolls;\r\n    function getVotes(uint pollid) public returns(uint[] memory)\r\n    {\r\n        uint length = activePolls[pollid].choicesCount;\r\n        uint[] memory arr =  new uint[](length);\r\n        \r\n        for(uint i = 0; i < arr.length; i++)\r\n        {\r\n            arr[i] = activePolls[pollid].votes[activePolls[pollid].choices[i]];\r\n        }\r\n        return arr;\r\n    }\r\n      // Create new Poll and add it to activePolls \r\n    function addNewPoll(bytes32[] memory arr, string memory PollName) public {\r\n        activePolls.push(Poll(arr, arr.length, PollName));\r\n    }\r\n    \r\n    //vote for a choice in a poll\r\n    function vote(uint pollId, uint choiceId)public\r\n    {\r\n       activePolls[pollId].votes[activePolls[pollId].choices[choiceId]]++;\r\n    }\r\n    \r\n    //returns the index of the poll with the highest votes in active polls\r\n    function topPoll() public returns(uint){\r\n        require(activePolls.length > 0, \"No active Polls!\");\r\n        uint top;\r\n        uint maxVotes = 0;\r\n        \r\n        for(uint i = 0; i < activePolls.length; i++)// loop through polls\r\n        {\r\n            uint votes = 0;\r\n            \r\n            Poll storage p = activePolls[i];\r\n            for(uint j = 0; j < p.choices.length; j++)//loop through current polls choices\r\n            {\r\n                votes += p.votes[p.choices[j]];// add votes to total\r\n            }\r\n            if(votes > maxVotes)// compare to top, if great assign new top\r\n            {\r\n                top = i;\r\n            }\r\n        }\r\n        return top;\r\n    }\r\n}",
  "sourcePath": "C:/Users/bakerz/Desktop/Projects/BlockPoll/Poll/contracts/BlockPoll.sol",
  "compiler": {
    "name": "solc",
    "version": "0.5.16+commit.9c3226ce.Emscripten.clang"
  },
  "schemaVersion": "3.3.1",
  "updatedAt": "2020-12-02T00:24:42.553Z",
  "networkType": "ethereum",
  "devdoc": {
    "methods": {}
  },
  "userdoc": {
    "methods": {}
  }
}