{
  "contractName": "BlockPoll",
  "abi": [
    {
      "constant": false,
      "inputs": [
        {
          "internalType": "bytes32[]",
          "name": "arr",
          "type": "bytes32[]"
        }
      ],
      "name": "addNewPoll",
      "outputs": [],
      "payable": false,
      "stateMutability": "nonpayable",
      "type": "function"
    },
    {
      "constant": false,
      "inputs": [
        {
          "internalType": "uint256",
          "name": "pollId",
          "type": "uint256"
        },
        {
          "internalType": "uint256",
          "name": "choiceId",
          "type": "uint256"
        }
      ],
      "name": "vote",
      "outputs": [],
      "payable": false,
      "stateMutability": "nonpayable",
      "type": "function"
    },
    {
      "constant": false,
      "inputs": [],
      "name": "topPoll",
      "outputs": [
        {
          "internalType": "uint256",
          "name": "",
          "type": "uint256"
        }
      ],
      "payable": false,
      "stateMutability": "nonpayable",
      "type": "function"
    }
  ],
  "bytecode": "0x608060405234801561001057600080fd5b50610443806100206000396000f3fe608060405234801561001057600080fd5b50600436106100415760003560e01c80635428faf114610046578063670ec24c14610064578063b384abef1461011c575b600080fd5b61004e610154565b6040518082815260200191505060405180910390f35b61011a6004803603602081101561007a57600080fd5b810190808035906020019064010000000081111561009757600080fd5b8201836020820111156100a957600080fd5b803590602001918460208302840111640100000000831117156100cb57600080fd5b919080806020026020016040519081016040528093929190818152602001838360200280828437600081840152601f19601f820116905080830192505050505050509192919290505050610297565b005b6101526004803603604081101561013257600080fd5b810190808035906020019092919080359060200190929190505050610307565b005b600080600080549050116101d0576040517f08c379a00000000000000000000000000000000000000000000000000000000081526004018080602001828103825260108152602001807f4e6f2061637469766520506f6c6c73210000000000000000000000000000000081525060200191505060405180910390fd5b6000806000905060008090505b60008054905081101561028e57600080905060008083815481106101fd57fe5b9060005260206000209060050201905060008090505b81600001805490508110156102725781600301600083600001838154811061023757fe5b9060005260206000200154815260200190815260200160002060009054906101000a900460ff1660ff16830192508080600101915050610213565b508382111561027f578294505b505080806001019150506101dd565b50819250505090565b6000604051806040016040528083815260200183518152509080600181540180825580915050906001820390600052602060002090600502016000909192909190915060008201518160000190805190602001906102f692919061039c565b506020820151816001015550505050565b6000828154811061031457fe5b9060005260206000209060050201600301600080848154811061033357fe5b9060005260206000209060050201600001838154811061034f57fe5b90600052602060002001548152602001908152602001600020600081819054906101000a900460ff168092919060010191906101000a81548160ff021916908360ff160217905550505050565b8280548282559060005260206000209081019282156103d8579160200282015b828111156103d75782518255916020019190600101906103bc565b5b5090506103e591906103e9565b5090565b61040b91905b808211156104075760008160009055506001016103ef565b5090565b9056fea265627a7a72315820a0e6a3eb03e5a00dfbc9401d04373e82d1aefb2ba9a01c71df4ddeb9eda3918564736f6c63430005100032",
  "source": "pragma solidity >=0.4.22 <0.7.0;\r\n\r\ncontract BlockPoll{\r\n    \r\n    struct Poll{\r\n        bytes32[] choices;\r\n        uint choicesCount;\r\n        mapping(bytes32 => bool)  options;//maps\r\n        mapping(bytes32 => uint8) votes;\r\n        mapping(address => bool) voters;\r\n       \r\n    }\r\n    \r\n    Poll[] private activePolls;\r\n    \r\n      // Create new Poll and add it to activePolls \r\n    function addNewPoll(bytes32[] memory arr) public {\r\n        activePolls.push(Poll(arr, arr.length));\r\n    }\r\n    \r\n    //vote for a choice in a poll\r\n    function vote(uint pollId, uint choiceId)public\r\n    {\r\n       activePolls[pollId].votes[activePolls[pollId].choices[choiceId]]++;\r\n    }\r\n    \r\n    //returns the index of the poll with the highest votes in active polls\r\n    function topPoll() public returns(uint){\r\n        require(activePolls.length > 0, \"No active Polls!\");\r\n        uint top;\r\n        uint maxVotes = 0;\r\n        \r\n        for(uint i = 0; i < activePolls.length; i++)// loop through polls\r\n        {\r\n            uint votes = 0;\r\n            \r\n            Poll storage p = activePolls[i];\r\n            for(uint j = 0; j < p.choices.length; j++)//loop through current polls choices\r\n            {\r\n                votes += p.votes[p.choices[j]];// add votes to total\r\n            }\r\n            if(votes > maxVotes)// compare to top, if great assign new top\r\n            {\r\n                top = i;\r\n            }\r\n        }\r\n        return top;\r\n    }\r\n}",
  "sourcePath": "C:/Users/bakerz/Desktop/Projects/BlockPoll/Poll/contracts/BlockPoll.sol",
  "compiler": {
    "name": "solc",
    "version": "0.5.16+commit.9c3226ce.Emscripten.clang"
  },
  "schemaVersion": "3.3.1",
  "updatedAt": "2020-12-01T22:36:51.586Z",
  "networkType": "ethereum",
  "devdoc": {
    "methods": {}
  },
  "userdoc": {
    "methods": {}
  }
}